:020000040800F2
:10000000000F002089010008031200081B110008DE
:10001000011200083B030008A713000800000000BD
:100020000000000000000000000000003D13000878
:100030003D03000800000000051200083F130008FF
:10004000A3010008A3010008A3010008A301000800
:10005000A3010008A3010008A3010008A3010008F0
:10006000A3010008A3010008A3010008A3010008E0
:10007000A3010008A3010008A3010008A3010008D0
:10008000A3010008A3010008A3010008A3010008C0
:10009000A3010008A3010008A3010008A3010008B0
:1000A000A3010008A3010008A3010008A3010008A0
:1000B000A3010008A3010008A3010008A301000890
:1000C000A3010008A3010008A3010008A301000880
:1000D000A3010008A3010008A3010008A301000870
:1000E000A3010008A3010008A301000800F002F822
:1000F00000F03AF80AA090E8000C82448344AAF188
:100100000107DA4501D100F02FF8AFF2090EBAE885
:100110000F0013F0010F18BFFB1A43F0010318473B
:10012000E818000008190000103A24BF78C878C108
:10013000FAD8520724BF30C830C144BF04680C60ED
:10014000704700000023002400250026103A28BF35
:1001500078C1FBD8520728BF30C148BF0B60704739
:100160001FB51FBD10B510BD00F0AEF81146FFF76A
:10017000F7FF01F0CFFB00F0CCF803B4FFF7F2FF7C
:1001800003BC00F0D3F80000094880470948004745
:10019000FEE7FEE7FEE7FEE7FEE7FEE7FEE7FEE737
:1001A000FEE7FEE704480549054A064B7047000094
:1001B000A5130008ED00000800090020000F002032
:1001C000000B0020000B002040EA010310B59B0744
:1001D0000FD1042A0DD310C808C9121F9C42F8D0B1
:1001E00020BA19BA884201D9012010BD4FF0FF3062
:1001F00010BD1AB1D30703D0521C07E0002010BD78
:1002000010F8013B11F8014B1B1B07D110F8013B03
:1002100011F8014B1B1B01D1921EF1D1184610BDE4
:1002200002F0FF0343EA032242EA024200F002B86E
:100230004FF000020429C0F0128010F0030C00F00F
:100240001B80CCF1040CBCF1020F18BF00F8012B8D
:10025000A8BF20F8022BA1EB0C0100F00DB85FEA5B
:10026000C17C24BF00F8012B00F8012B48BF00F827
:10027000012B70474FF0000200B513469446964696
:10028000203922BFA0E80C50A0E80C50B1F12001A9
:10029000BFF4F7AF090728BFA0E80C5048BF0CC057
:1002A0005DF804EB890028BF40F8042B08BF7047B5
:1002B00048BF20F8022B11F0804F18BF00F8012B27
:1002C0007047704770477047754600F02BF8AE4690
:1002D00005006946534620F00700854618B020B552
:1002E000FFF760FFBDE820404FF000064FF0000729
:1002F0004FF000084FF0000B21F00701AC46ACE8CE
:10030000C009ACE8C009ACE8C009ACE8C0098D463A
:10031000704710B50446AFF300802046BDE810409A
:10032000FFF72BBF004870479C08002001491820A8
:10033000ABBEFEE7260002007047FEE7704772B6CC
:10034000FEE7000070B5044600F004F90546601CA5
:1003500002D004480078044400F0FCF8401BA0429E
:10036000FAD370BD080000202DE9F84FDFF8B891EE
:10037000002409F1040A0AF1040B23460F270BF1AC
:10038000040EC9E00125A5402A40AA427DD1674E4E
:10039000D1F804C0ACEB0608B44532D014DCBCF193
:1003A000030F3AD009DCBCF1000F2AD0BCF1010FD9
:1003B0001CD0BCF1020F31D11DE0BCF1110F17D0E0
:1003C000BCF1120F2AD119E0B8F5881F19D006DC4C
:1003D000B8F5803F15D0B8F5801F1FD111E0B8F5F2
:1003E000001F0ED0B8F5041F18D10AE0CB6815E045
:1003F000CB681B1D12E0CB6808330FE0CB680C33D1
:100400000CE08B682BB1012B4FF0080303D0456142
:1004100004E0042302E0056100E00023FF2A01D884
:10042000064601E000F104064FEA840501D9A5F172
:100430002005D6F8008007FA05FC28EA0C0803FA24
:1004400005F548EA0508C6F800804D68ED0062D55C
:10045000374DAE6946F00106AE61AD6924F0030682
:1004600005F001050095334D06EB050CDCF808504E
:10047000A607360F07FA06F825EA0805DFF8B88060
:10048000404503D14FF0000817E044E0DFF8AC80AE
:10049000404502D14FF001080FE0DFF8A48040454D
:1004A00002D14FF0020808E0DFF89880404502D101
:1004B0004FF0030801E04FF0040808FA06F848EA94
:1004C0000508CCF808804D68D9F80060ED034D466A
:1004D00001D5164300E096432E604D68DAF80060BF
:1004E000AD03554601D5164300E096432E604D6896
:1004F000DBF80060ED025D4601D5164300E096434F
:100500002E604D68DEF80060AD02754601D51643D9
:1005100000E096432E60641C0D682A46E5407FF497
:1005200031AFBDE8F88F0000000401400000111059
:10053000001002400000014000080140000C014092
:1005400000100140001401400AB101617047090424
:10055000FBE70000014880687047000008000020A9
:1005600002488168027811448160704708000020C9
:10057000074810B5016841F010010160032000F048
:1005800067F80F2000F006F800F024F8002010BDF6
:100590000020024070B50D4D04464FF47A71287862
:1005A000B1FBF0F00A490968B1FBF0F000F0A1FDE1
:1005B00048B9102C07D200222146501E00F028F81E
:1005C00000206C6070BD012070BD0000080000209C
:1005D000140000200C4808B5816941F001018161D7
:1005E000816901F001010091C16941F08051C1614F
:1005F000C06900F0805000900448416821F0E0613B
:1006000041F00071416008BD00100240000001404F
:10061000F0B40E4B1B680C46C3F30223C3F107056D
:10062000042D00D90425191D072901D2002300E05B
:10063000DB1E012606FA05F1491E214099409E4025
:10064000761E16403143F0BC01F054B90CED00E0C9
:10065000064900F0070208684FF6FF03184040EA19
:100660000220034A10430860704700000CED00E0D0
:100670000000FA052DE9F0470F46050061D0434E12
:10068000306800F00700B84209D2306820F0070057
:1006900038433060306800F00700B84251D1286814
:1006A0003B4C810712D5400703D5606840F4E060F9
:1006B00060602878000703D5606840F4605060608F
:1006C0006068A96820F0F000084360602878C007DF
:1006D00028D06868012810D02168022810D0890726
:1006E00000292EDA616821F0030101436160FFF700
:1006F00031FF804641F288390DE021688903EFE738
:100700008901EDE7FFF726FFA0EB0801494502D973
:100710000320BDE8F0876068696800F00C00B0EB6A
:10072000810FEFD1306800F00700B8420BD9306874
:1007300020F0070038433060306800F00700B8420E
:1007400001D00120E5E72878400705D56068E96811
:1007500020F4E060084360602878000706D56068F0
:10076000296920F4605040EAC100606000F018F888
:100770006168084AC1F30311515CC840064908602A
:1007800006480068FFF706FF0020C2E7002002408D
:1007900000100240F8190008140000200C0000208E
:1007A00012A185B00FC98DE80F0014A0144A00688B
:1007B00004905168134801F00C03042B10D0082B4F
:1007C0000ED1C1F38343C9031DF803000AD5516854
:1007D00004AAC1F34041515C0A4A5043B0FBF1F016
:1007E00005B0704708494843FAE7000002030405D2
:1007F000060708090A0B0C0D0E0F1010010200006D
:100800000010024000127A0000093D002DE9F84F67
:10081000040070D02078C04DC00749D06868C0F38C
:100820008100012807D06868C0F38100022809D13F
:100830006868C00306D52868800339D56068002839
:10084000E7D035E06068B0F5803F0BD010B1B0F56F
:10085000A02F11D0286820F480302860286820F468
:10086000802002E0286840F480302860606890B101
:10087000FFF770FE06460AE0286840F480202860F2
:10088000F0E700BFFFF766FE801B642873D8286876
:100890008003F7D50CE0FFF75DFE064605E000BFDC
:1008A000FFF758FE801B6428F0D828688003F7D42F
:1008B00020789A4E80074FF001094FF0000839D593
:1008C000686810F00C0F07D06868C0F38100022838
:1008D00009D16868C00306D42868800714D5206948
:1008E000012808D110E02069B0B1C6F80090FFF7E8
:1008F00031FE074605E00AE1FFF72CFEC01B022887
:10090000C4D828688007F7D52868616920F0F80006
:1009100040EAC10028600DE0C6F80080FFF71AFE2B
:10092000074604E0FFF716FEC01B022823D82868FC
:100930008007F7D4207800072CD57948A169D9B170
:10094000C0F80090FFF706FE074604E0FFF702FE3E
:10095000C01B02280FD8686A8007F7D571484FF48A
:10096000FA510068B0FBF1F0009000BF0098411E02
:100970000091FAD20EE080E0C0F80080FFF7EAFDB7
:10098000074604E0FFF7E6FDC01B022875D8686A39
:100990008007F7D42078400760D5E8690027C000B9
:1009A00008D4E86940F08050E861E869012700F068
:1009B000805000905C480168C90513D401688346E3
:1009C00041F480710160FFF7C5FD824606E000BF7B
:1009D000FFF7C0FDA0EB0A0064284ED8DBF800004A
:1009E000C005F5D5E06801280AD008B1052813D064
:1009F000286A20F001002862286A20F0040002E042
:100A0000286A40F001002862E06841F2883B98B112
:100A1000FFF7A0FD82460BE0286A40F00400286240
:100A2000EEE700BFFFF796FDA0EB0A0159455AD843
:100A3000286A8007F6D50CE0FFF78CFD824605E0BA
:100A4000FFF788FDA0EB0A0159454CD8286A8007BA
:100A5000F6D41FB1E86920F08050E861E06988B3FE
:100A60006968C1F38101022944D00228C6F8608078
:100A700004D0FFF76FFD044638E034E0FFF76AFD6D
:100A8000074604E0FFF766FDC01B02282BD8286844
:100A90008001F7D4206AB0F5803F05D16868A1686D
:100AA00020F4003008436860D4E90801084369680D
:100AB00021F4741108436860C6F86090FFF74AFD9E
:100AC000044606E025E000BFFFF744FD001B0228B6
:100AD00009D828688001F7D51BE000BFFFF73AFD71
:100AE000001B022802D90320BDE8F88F2868800186
:100AF000F4D40EE00128F7D06868226A00F480314F
:100B0000914204D1616A00F47010884201D0012042
:100B1000EAE70020E8E7000000100240000042423F
:100B200080044242140000200070004070B50400B0
:100B300009D0606A002540B125616561A56294F81D
:100B4000510040B10CE0012070BD6068B0F5827FBB
:100B5000F4D0E561F2E784F85050204600F040F808
:100B6000022084F851002068016821F040010160F2
:100B7000A088218900F4827001F404410843A1890E
:100B800001F400610843217C01F002010843217D4A
:100B900001F001010843218B01F400710843217F1A
:100BA00001F03801084394F8201001F08001084357
:100BB000218D01F40051084321680860A0690421D7
:100BC00001EA1040216848602068C16921F4006191
:100BD000C1616565012084F85100002070BD0000EE
:100BE00030B585B000240094019402940394006809
:100BF0001449884223D11448816941F480518161AC
:100C0000816901F480510491816941F0040181619D
:100C100080690E4D00F004000490A0200090022096
:100C200001900320039069462846FFF79DFB402072
:100C3000CDE90004694628460294FFF795FB05B00C
:100C400030BD0000003001400010024000080140AB
:100C50002DE9F84F044640680025984616460F4691
:100C60004FF0040BB0F5827F01D1A06888B194F8F1
:100C70005000012818D0012084F85000FFF76AFCCA
:100C8000814694F851004FF0000A01280ED0022549
:100C900082E084F851B013460A462046CDF8008021
:100CA00000F036F9BDE8F88F0220FBE7002F72D084
:100CB000002E70D084F851B0C4F854A0A763A68762
:100CC000E687C4F830A0A4F834A0A4F836A0C4F88D
:100CD00040A0C4F844A0A068B0F5004F09D1206836
:100CE000016821F0400101602068016821F4804121
:100CF000016020680168490603D4016841F04001A1
:100D00000160E068D8B139E020688168C90709D07E
:100D1000007BA16B0870A06B401CA063E08F401E9D
:100D2000E0870CE0FFF716FCA0EB0901414503D377
:100D3000B8F1FF3F03D036E0B8F1000F33D0E08FB9
:100D40000028E1D11DE020688168C90709D0C0688A
:100D5000A16B0880A06B801CA063E08F401EE08721
:100D60000CE0FFF7F7FBA0EB0901414503D3B8F115
:100D7000FF3F03D017E0B8F1000F14D0E08F002838
:100D8000E1D14A464146204600F03DFA08B1202014
:100D90006065606D00B10125012084F8510084F880
:100DA00050A028467EE70325F6E72DE9F84F0446D4
:100DB00090F8500000271D461646894601280DD0A0
:100DC0004FF0010B84F850B0FFF7C4FB804694F855
:100DD0005100BA46012804D0022793E00220BDE862
:100DE000F88FB9F1000F73D0002E71D0032084F872
:100DF0005100C4F854A0C4F83090A686E686C4F822
:100E000038A0A4F83CA0A4F83EA0C4F844A0C4F8BC
:100E100040A0A068B0F5004F09D12068016821F01A
:100E2000400101602068016841F480410160206850
:100E30000168490603D4016841F040010160E0689F
:100E4000B0F5006F606803D030B3012E24D041E0CC
:100E500008B1012E1CD1206B21680088C86006E013
:100E600020688168890709D5216B0988C160206BDA
:100E7000801C2063E08E401EE08609E0FFF76AFBDD
:100E8000A0EB0800A84202D3681C01D031E07DB37A
:100E9000E08E0028E4D120E0206B21680078087300
:100EA00006E020688168890709D5216B09780173FC
:100EB000206B401C2063E08E401EE0860AE0FFF7B6
:100EC00049FBA0EB0800A84203D3681C02D010E045
:100ED00017E06DB1E08E0028E3D142462946204656
:100EE00000F0BFF908B120206065A06818B106E0E5
:100EF000FFE7032706E02068C16880680090606D06
:100F000000B1012784F851B084F850A0384666E754
:100F10002DE9F84F044690F8500000270A9E1D4620
:100F200092468B464FF0010901280ED0012084F82B
:100F30005000FFF70FFB804694F8510061680128CC
:100F40000CD0B1F5827F07D102E00220BDE8F88F16
:100F5000A16809B9042801D00227C2E0BBF1000F43
:100F600027D0BAF1000F24D01DB394F85100042803
:100F700002D0052084F8510000206065C4F838A034
:100F8000E587A587C4F830B0E586A586206460644F
:100F900020680168490603D4016841F040010160FE
:100FA000E068B0F5006F606805D0E8B3012D46D069
:100FB0007FE0012795E008B1012D39D1206B216830
:100FC0000088C860206B801C2063E08E401EE08695
:100FD0002EE02068816889070FD5E18E69B1B9F1EB
:100FE000010F0AD1216B0988C160206B801C20632E
:100FF000E08E401EE0864FF0000920688168C90736
:101000000CD0E18F51B1C068A16B0880A06B801C2F
:10101000A063E08F401EE0874FF00109FFF79AFAC6
:10102000A0EB0800B04200E009E001D3701C50D1F1
:10103000E08E0028CDD1E08F0028CAD13FE0206BA0
:10104000216800780873206B401C2063E08E401EEE
:10105000E0862EE02068816889070FD5E18E69B1AE
:10106000B9F1010F0AD1216B09780173206B401C83
:101070002063E08E401EE0864FF000092068816802
:10108000C9070CD0E18F51B1C068A16B0870A06B8B
:10109000401CA063E08F401EE0874FF00109FFF77E
:1010A00059FAA0EB0800B04202D3701C01D010E046
:1010B0007EB1E08E0028CDD1E08F0028CAD1424613
:1010C0003146204600F0CDF828B101272020606588
:1010D00007E0032705E0A06818B92068C1688068A8
:1010E0000090012084F85100002084F85000384618
:1010F0002CE710B5401EB0F1807F01D3012010BD58
:101100004FF0E02460610F21601700F0F3FB002036
:10111000A06107202061002010BDFEE72DE9F0430B
:1011200085B00024214800940194029403948169BD
:1011300041F020018161816901F020010491816900
:1011400041F004018161816901F004010491816928
:1011500041F0080181618069DFF8548000F00800E7
:101160000490002210214046FFF7EEF9DFF844908A
:1011700040F20747002239464846FFF7E5F91020BC
:1011800001250226CDE90005CDE902466946404623
:10119000FFF7EAF800970396CDE9015469464846FF
:1011A000FFF7E2F805B0BDE8F08300000010024050
:1011B00000080140000C0140104810B50E490160C4
:1011C0004FF48271416000218160C1604FF4007270
:1011D0000161C0E905121022C0E907214162816264
:1011E0000A21C162FFF7A2FC002803D0BDE810402D
:1011F000FFF7A5B810BD0000003001401C0800201A
:10120000FEE7FEE77047F8B5044640684FF4827386
:10121000984217D1A0684FF48065B0F5004F01D017
:10122000A8420FD12068066826F040060660606874
:10123000984207D1A068A84204D100920B46002230
:10124000012103E000920B4600228021204600F09D
:1012500019F8002804D0606D40F02000606503207C
:10126000F8BD38B50B46009204460022802100F0FC
:1012700009F8002804D0606D40F02000606503206C
:1012800038BD00002DE9F8431E46914688460446C5
:10129000089DFFF75FF9401B351AFFF75BF907461A
:1012A00025480068C0F3CB30684338E0701C37D065
:1012B000FFF750F9C01BA84203D215B1009860B3E4
:1012C0002CE02068416821F0E00141606068B0F5E1
:1012D000827F0BD1A068B0F5004F02D0B0F5806FCF
:1012E00004D12068016821F040010160A06AB0F5D6
:1012F000005F09D12068016821F400510160206875
:10130000016841F400510160012084F8510000207F
:1013100084F850000320BDE8F8830025401E0090AB
:101320002068816838EA010004D000214945BDD118
:101330000020F0E70121F9E7140000207047FFF7D3
:101340000FB930B58FB028216846FEF793FF1421FE
:101350000AA8FEF78FFF01210804CDE90010002440
:10136000029402250491CDE907504FF4E010099052
:101370006846FFF74BFA08B172B6FEE70F20CDE9D9
:101380000A054FF48060CDE90C404FF4E0600E9008
:1013900002210AA8FFF76EF9002801D072B6FEE715
:1013A0000FB030BD7047FEE770B506461C4D01E03A
:1013B000FEF7C8FF95F8270001284FF00100F7D08D
:1013C00085F8270000F0CEF92C69744300F0F0F99D
:1013D000144E002210213046FFF7B6F8202000F00E
:1013E000B1F92878092802D3200E00F0ABF9C4F334
:1013F000074000F0A7F9C4F3072000F0A3F9E0B21A
:1014000000F0A0F9012210213046FFF79DF800F00E
:10141000A9F90120FEF796FF002085F8270070BD8E
:1014200074080020000801402DE9F041384C0126E5
:1014300084F8276002E00120FEF784FFFFF78AF8B6
:101440006428F8D3012210213248FFF77DF8642088
:10145000FEF778FF00F060F8C7B2082100250422EB
:1014600002234801113F102F4ED2DFE807F02B284E
:1014700025221E1A16130D4D4D4D4D4D4D080A21B6
:1014800021704FF4806103E0092121704FF4007155
:10149000E16119E02170E06116E0072121708021EF
:1014A000F6E7062121704021F2E705212170202175
:1014B000EEE722701021EBE703222270E8E72370A9
:1014C000E26101E02670E36160814FF480512161A7
:1014D000E169090161610903B1FBF0F0E0604FF4DB
:1014E0008030A061880A206200F0FAF8012000F044
:1014F000C1F8022000F0BEF8032000F0BBF884F829
:1015000027500120BDE8F08184F827500020F9E73A
:1015100074080020000801402DE9F041104F00221E
:1015200010213846FFF710F89F2000F00BF9A52096
:1015300000F008F90646A52000F004F90546A520AC
:1015400000F000F90446012210213846FEF7FCFFA6
:101550003004044940EA052020430860BDE8F081DA
:1015600000080140180000202DE9F0411C461646F5
:101570000F468046234D01E0FEF7E4FE95F8270074
:1015800001284FF00100F7D085F827006889A042B4
:1015900000D304B904463119814200D9841B07FBEA
:1015A0000066194F002210213846FEF7CDFF0B20B0
:1015B00000F0C8F82878092802D3300E00F0C2F8ED
:1015C000C6F3074000F0BEF8C6F3072000F0BAF8F3
:1015D000F0B200F0B7F8002000F0B4F8A2B2642333
:1015E00041460A48FFF734FB012210213846FEF736
:1015F000ABFF0120FEF7A6FE002085F82700BDE81E
:10160000F081000074080020000801401C08002040
:101610002DE9F041164D074616462869984200D339
:1016200003B90346B04221D9F218824201D9841B82
:1016300000E01C46084600F07BF801466889B6FBCE
:10164000F0F201EB0208B6FBF0F100FB1166234655
:10165000324641463846FFF787FF688908F101089E
:10166000801B241A00260744002CF0DCBDE8F08122
:101670007408002070B5184E044600221021304630
:10168000FEF762FF154D012C11D0022C19D0152048
:1016900000F058F8A52000F055F8044685F826001B
:1016A000012210213046FEF74FFF204670BD052075
:1016B00000F048F8A52000F045F8044685F824001D
:1016C000EEE7352000F03EF8A52000F03BF8044698
:1016D00085F82500E4E700000008014074080020B8
:1016E00070B5114D002210212846FEF72DFF4B202A
:1016F00000F028F80024A52000F024F8641CE4B2CF
:10170000042CF8D3094E0024A52000F01BF8311951
:10171000641CE4B24870082CF6D32846BDE870403B
:1017200001221021FEF710BF0008014074080020BC
:1017300003490A6942434889B2FBF0F07047000050
:101740007408002001B582B064200090012301AA32
:1017500002A90348FFF7DCFB9DF804000EBD000062
:101760001C08002070B50120FEF7ECFD0E4D002294
:1017700010212846FEF7E8FE0520FFF7E3FF0B4C9B
:10178000A520FFF7DFFF84F824000120FEF7DAFD33
:1017900094F82400C007F3D12846BDE87040012228
:1017A0001021FEF7D1BE000000080140740800209F
:1017B00010B5094C002210212046FEF7C5FE062078
:1017C000FFF7C0FF012210212046FEF7BDFEBDE855
:1017D00010400120FEF7B6BD000801402DE9F0479A
:1017E0001D4616460F468146264C01E0FEF7AAFD2F
:1017F00094F8270001284FF00100F7D084F8270063
:101800006089A919814200D805B9851B71198142E7
:1018100000D9851BFFF7A6FFFFF7CAFFDFF8688036
:10182000002210214046FEF78FFE0220FFF78AFFBC
:10183000608907FB00662078092802D3300EFFF785
:1018400081FFC6F30740FFF77DFFC6F30720FFF7D0
:1018500079FFF0B2FFF776FFAAB2642349460B483E
:10186000FFF7A3FA012210214046FEF76DFEFFF7B5
:1018700079FF0120FEF766FD002084F82700BDE80F
:10188000F087000074080020000801401C080020B8
:101890002DE9F041164D074616462869984200D3B7
:1018A00003B90346B04221D9F218824201D9841B00
:1018B00000E01C460846FFF73BFF01466889B6FB7F
:1018C000F0F201EB0208B6FBF0F100FB11662346D3
:1018D000324641463846FFF781FF688908F1010822
:1018E000801B241A00260744002CF0DCBDE8F081A0
:1018F000740800200907090E002804DB00F1E0202D
:1019000080F80014704700F00F0000F1E02080F82C
:10191000141D7047FEF72CFEFFF713FDFFF7FEFBCB
:10192000FFF74AFC0120304C8502CC22207029466A
:101930002E48FEF775FCFFF777FD2D4E00274FE090
:10194000012229463046FEF7FFFD2078FFF72CFDE7
:10195000002229463046FEF7F7FDA78036E02349EE
:10196000A0780122087011463046FEF7EDFD2B46A7
:10197000A28821781D48FFF78BFF00220121304605
:10198000FEF7E2FD012202213046FEF7DDFD2B4687
:10199000A28821781748FFF73BFE0022022130463B
:1019A000FEF7D2FD2A4613491048FEF70DFC68B930
:1019B00029461048FEF73CFCE078401CE070A07817
:1019C000401CA070A08800F58060A080E07804280A
:1019D000C5D3E7702078401C20706078401C607090
:1019E00060781028ACD3FEE7000000201C04002023
:1019F000000C01401C00002000000000000000005E
:101A00000102030406070809281A00080000002044
:101A10001C00000028010008441A00081C000020D7
:101A2000E40E000044010008000000000000000077
:101A30000100000010000000000000000024F4007D
:041A400000000000A2
:04000005080000ED02
:00000001FF
